:100000000C9434000C943E000C943E000C943E0082
:100010000C943E000C943E000C943E000C943E0068
:100020000C943E000C943E000C943E000C943E0058
:100030000C943E000C943E000C943E000C943E0048
:100040000C943E000C943E000C943E000C943E0038
:100050000C943E000C943E000C943E000C943E0028
:100060000C943E000C943E0011241FBECFEFD8E04C
:10007000DEBFCDBF0E9440000C9463000C940000D2
:10008000E0E8F0E0808182628083E1E8F0E0808156
:100090008A608083229A8FEF93E090938700809309
:1000A0008600EAE8F0E080E090E091838083A7E8B2
:1000B000B3E11197F1F700C0000001968F3FB3E064
:0A00C0009B0799F7F0CFF894FFCFEB
:00000001FF
