S00E00005473616B30322E7372656321
S11300000C9434000C9466000C94B4000C945100CD
S11300100C9451000C9451000C9451000C94510018
S11300200C9451000C9451000C9451000C94510008
S11300300C9451000C9451000C9451000C945100F8
S11300400C9451000C9451000C9451000C945100E8
S11300500C9451000C9451000C9451000C945100D8
S11300600C9451000C94510011241FBECFEFD8E022
S1130070DEBFCDBF11E0A0E0B1E0ECE0FDE002C0E6
S113008005900D92AE30B107D9F721E0AEE0B1E0B2
S113009001C01D92A631B207E1F70E9455040C94E9
S11300A084060C9400008FEF87B984B91AB88AB11A
S11300B01AB88BB18C618BB98DB383608DBBE9E6C3
S11300C0F0E080818A608083789408951F920F9273
S11300D00FB60F9211242F933F934F935F936F9317
S11300E07F938F939F93AF93BF93EF93FF9320E0FE
S11300F030E040E85FE36091120170911301809158
S11301001401909115010E945C0460931201709394
S11301101301809314019093150120E030E040E82E
S11301205FE360910E0170910F0180911001909135
S113013011010E945C0460930E0170930F0180937F
S1130140100190931101FF91EF91BF91AF919F9195
S11301508F917F916F915F914F913F912F910F906C
S11301600FBE0F901F9018951F920F920FB60F920B
S11301701124CF92DF92EF92FF922F933F934F93EC
S11301805F936F937F938F939F93AF93BF93EF93FB
S1130190FF93C0901201D0901301E0901401F090ED
S11301A0150120E030E0A901C701B6010E94EA056B
S11301B0181684F420E030E040E85FE3C701B6019C
S11301C00E945B04609312017093130180931401E5
S11301D090931501FF91EF91BF91AF919F918F91F2
S11301E07F916F915F914F913F912F91FF90EF908D
S11301F0DF90CF900F900FBE0F901F9018952F9205
S11302003F924F925F926F927F928F929F92AF92A2
S1130210BF92CF92DF92EF92FF920F931F93CF93EF
S1130220DF9300D0CDB7DEB74B015C0100E010E0F6
S1130230552453940F2EF8EECF2EF3E0DF2EF02D3D
S11302406894662461F80F2EF4E62F2E312CF02DDD
S11302506894772472F86894442443F84C9908C04D
S113026010920E0110920F011092100110921101C0
S113027020E030E040E251E4C501B4010E94C8042A
S113028088230CF067C020E030E04AE754E4C5015D
S1130290B4010E94EF050E943F05CB01B6010E9404
S11302A05C069C0158B8CB016AE070E00E945C06D1
S11302B0FC01EC5FFE4F808185B98FE39CE90197D7
S11302C0F1F700C000002C9A8FE19EE40197F1F74A
S11302D000C000002C988FE19EE40197F1F700C064
S11302E0000068B8C901B1010E945C06CB016AE054
S11302F070E00E945C06FC01EC5FFE4F808185B9D2
S11303008FE493EC0197F1F700C0000078B8C901BD
S11303106AE070E00E945C069C01CB016AE070E038
S11303200E945C06FC01EC5FFE4F808185B98FE47E
S113033093EC0197F1F700C0000048B8F901EC5FB5
S1130340FE4F808185B98FE493EC0197F1F700C0EB
S1130350000000C120E030E048EC52E4C501B401E3
S11303600E94C80488230CF082C020E030E048ECEE
S113037052E4C501B4010E94EF050E943F057B01D0
S1130380CB01B1010E945C069A83898320E030E0AE
S113039040E252E460910E0170910F0180911001CE
S11303A0909111010E94EA05181654F488B190E165
S11303B0892788B987EA91E60197F1F700C0000020
S11303C058B8C701B6010E945C06CB016AE070E030
S11303D00E945C06FC01EC5FFE4F808185B98FE4CE
S11303E093EC0197F1F700C0000068B8C701B101B0
S11303F00E945C06CB016AE070E00E945C06FC018E
S1130400EC5FFE4F808185B987EC9FEA0197F1F795
S113041000C000002C9A8FE097E20197F1F700C02A
S113042000002C9878B889819A816AE070E00E9473
S11304305C069C01CB016AE070E00E945C06FC0152
S1130440EC5FFE4F808185B98FE493EC0197F1F75F
S113045000C0000048B8F901EC5FFE4F808185B907
S11304608FE493EC0197F1F700C0000073C020E023
S113047030E04AE754E4C501B4010E94C80488236B
S11304800CF068C020E030E040E251E4C501B40162
S11304900E94EF050E943F059B0158B8CB01B601AD
S11304A00E945C06CB016AE070E00E945C06FC01DD
S11304B0EC5FFE4F808185B98FE493EC0197F1F7EF
S11304C000C0000068B8C901B1010E945C06CB01FC
S11304D06AE070E00E945C06FC01EC5FFE4F8081E4
S11304E085B98FE493EC0197F1F700C0000078B868
S11304F0C9016AE070E00E945C069C01CB016AE0DD
S113050070E00E945C06FC01EC5FFE4F808185B9BF
S11305108BE191E40197F1F700002C9A8BE191E4CF
S11305200197F1F700002C988BE191E40197F1F722
S1130530000048B8C9016AE070E00E945C06FC0152
S1130540EC5FFE4F808185B98FE493EC0197F1F75E
S113055000C000000F5F1F4F0431110509F07ECE6B
S11305600F900F90DF91CF911F910F91FF90EF901B
S1130570DF90CF90BF90AF909F908F907F906F90BF
S11305805F904F903F902F9008952F923F924F92FB
S11305905F926F927F928F929F92AF92BF92CF920F
S11305A0DF92EF92FF920F931F93CF93DF9300D0CC
S11305B0CDB7DEB74B015C0100E010E07724739403
S11305C00F2EF8EE2F2EF3E03F2EF02D68946624C4
S11305D061F80F2EF4E6CF2ED12CF02D689455241B
S11305E052F86894442443F84C9908C010920E01C0
S11305F010920F01109210011092110120E030E0CE
S113060048EC52E4C501B4010E94C80488230CF0EC
S113061062C020E030E048EC52E4C501B4010E941D
S1130620EF050E943F059B01CB01B6010E945C06C9
S11306307B01FC0178B8C901B1010E945C06CB01C1
S11306406AE070E00E945C06DC01AC5FBE4F8C91F6
S113065085B98FE493EC0197F1F700C0000068B806
S1130660C7016AE070E00E945C06DC01AC5FBE4F2B
S11306708C9185B98FE39CE90197F1F700C00000E4
S11306802C9A83E095E40197F1F700002C9858B870
S1130690CF016AE070E00E945C069C01CB016AE035
S11306A070E00E945C06FC01EC5FFE4F808185B91E
S11306B08FE493EC0197F1F700C0000048B8F9010A
S11306C0EC5FFE4F808185B98FE493EC0197F1F7DD
S11306D000C0000094C020E030E04AE754E4C501C3
S11306E0B4010E94C80488230CF089C020E030E0E3
S11306F040E251E4C501B4010E94EF050E943F05A8
S11307007B01CB016AE070E00E945C069A838983D6
S113071020E030E040E252E460910E0170910F015C
S113072080911001909111010E94EA05181654F469
S113073088B190E1892788B987EA91E60197F1F7B2
S113074000C0000078B8C701B1010E945C06CB016B
S11307506AE070E00E945C06FC01EC5FFE4F808161
S113076085B98FE493EC0197F1F700C0000068B8F5
S1130770C701B6010E945C06CB016AE070E00E94EA
S11307805C06FC01EC5FFE4F808185B98FE493EC3D
S11307900197F1F700C0000058B8C7016AE070E0A3
S11307A00E945C06CB016AE070E00E945C06FC01DA
S11307B0EC5FFE4F808185B98BE191E40197F1F7FD
S11307C000002C9A8BE191E40197F1F700002C983A
S11307D08BE191E40197F1F7000048B889819A818F
S11307E06AE070E00E945C06FC01EC5FFE4F8081D1
S11307F085B98FE493EC0197F1F700C000000F5F17
S11308001F4F0431110509F0EFCE0F900F90DF91C7
S1130810CF911F910F91FF90EF90DF90CF90BF90F9
S1130820AF909F908F907F906F905F904F903F908C
S11308302F900895CF92DF92EF92FF92C090120111
S1130840D0901301E0901401F090150120E030E005
S113085040E151E4C701B6010E94EF0520E030E019
S113086040EA50E40E94CD0420E030E040E052E44D
S11308700E945C0460930001709301018093020163
S113088090930301C701B6010E94FF00609100012B
S11308907091010180910201909103010E94C502AF
S11308A0FF90EF90DF90CF9008950E9453005C9AE0
S11308B00E941A04FDCF5058BB27AA270E94730434
S11308C00C94B0050E94A20538F00E94A90520F0FE
S11308D039F49F3F19F426F40C949F050EF4E09527
S11308E0E7FB0C949905E92F0E94C10558F3BA1748
S11308F0620773078407950720F079F4A6F50C9432
S1130900E3050EF4E0950B2EBA2FA02D0B01B901CF
S113091090010C01CA01A0011124FF27591B99F071
S1130920593F50F4503E68F11A16F040A22F232F7D
S1130930342F4427585FF3CF469537952795A795CD
S1130940F0405395C9F77EF41F16BA0B620B730B74
S1130950840BBAF09150A1F0FF0FBB1F661F771FE5
S1130960881FC2F70EC0BA0F621F731F841F48F49A
S1130970879577956795B795F7959E3F08F0B0CF23
S11309809395880F08F09927EE0F9795879508950A
S11309900E94750508F481E008950E94E1040C9416
S11309A0B0050E94A90558F00E94A20540F029F460
S11309B05F3F29F00C94990551110C94E4050C94B3
S11309C09F050E94C10568F39923B1F3552391F360
S11309D0951B550BBB27AA2762177307840738F0AA
S11309E09F5F5F4F220F331F441FAA1FA9F335D007
S11309F00E2E3AF0E0E832D091505040E695001CBB
S1130A00CAF72BD0FE2F29D0660F771F881FBB1F74
S1130A10261737074807AB07B0E809F0BB0B802D52
S1130A20BF01FF2793585F4F3AF09E3F510578F07E
S1130A300C9499050C94E4055F3FE4F3983ED4F3D9
S1130A40869577956795B795F7959F5FC9F7880F52
S1130A50911D9695879597F90895E1E0660F771FA4
S1130A60881FBB1F621773078407BA0720F0621B35
S1130A70730B840BBA0BEE1F88F7E09508950E9460
S1130A8046056894B1110C94E40508950E94C905C3
S1130A9088F09F5798F0B92F9927B751B0F0E1F03B
S1130AA0660F771F881F991F1AF0BA95C9F714C0EB
S1130AB0B13091F00E94E305B1E008950C94E30590
S1130AC0672F782F8827B85F39F0B93FCCF3869524
S1130AD077956795B395D9F73EF490958095709581
S1130AE061957F4F8F4F9F4F0895990F0008550FC1
S1130AF0AA0BE0E8FEEF16161706E807F907C0F0A0
S1130B0012161306E407F50798F0621B730B840BA7
S1130B10950B39F40A2661F0232B242B252B21F481
S1130B2008950A2609F4A140A6958FEF811D811D21
S1130B30089597F99F6780E870E060E008959FEF5B
S1130B4080EC089500240A94161617061806090660
S1130B50089500240A94121613061406050608952F
S1130B60092E0394000C11F4882352F0BB0F40F4B7
S1130B70BF2B11F460FF04C06F5F7F4F8F4F9F4FF7
S1130B80089557FD9058440F551F59F05F3F71F079
S1130B904795880F97FB991F61F09F3F79F08795E0
S1130BA00895121613061406551FF2CF4695F1DF69
S1130BB008C0161617061806991FF1CF86957105F9
S1130BC0610508940895E894BB2766277727CB012D
S1130BD097F908950E94750508F48FEF08950E940F
S1130BE002060C94B0050E94A20538F00E94A905E3
S1130BF020F0952311F00C9499050C949F05112471
S1130C000C94E4050E94C10570F3959FC1F3950F00
S1130C1050E0551F629FF001729FBB27F00DB11D7C
S1130C20639FAA27F00DB11DAA1F649F6627B00D0C
S1130C30A11D661F829F2227B00DA11D621F739FF5
S1130C40B00DA11D621F839FA00D611D221F749F03
S1130C503327A00D611D231F849F600D211D822F4A
S1130C60762F6A2F11249F5750409AF0F1F0882371
S1130C704AF0EE0FFF1FBB1F661F771F881F91509E
S1130C805040A9F79E3F510580F00C9499050C94AF
S1130C90E4055F3FE4F3983ED4F386957795679532
S1130CA0B795F795E7959F5FC1F7FE2B880F911DC8
S1130CB09695879597F9089597FB072E16F4009457
S1130CC007D077FD09D00E94700607FC05D03EF4DA
S1130CD0909581959F4F0895709561957F4F0895E4
S1130CE0AA1BBB1B51E107C0AA1FBB1FA617B7074E
S1130CF010F0A61BB70B881F991F5A95A9F780956A
S10F0D009095BC01CD010895F894FFCF3C
S1110D0C000000420001020304050607080966
S9030000FC
