S00E00005461736B30352E737265631E
S11300000C9434000C9467000C94B5000C945100CB
S11300100C9451000C9451000C9451000C94510018
S11300200C9451000C9451000C9451000C94510008
S11300300C9451000C9451000C9451000C945100F8
S11300400C9451000C9451000C9451000C945100E8
S11300500C9451000C9451000C9451000C945100D8
S11300600C9451000C94510011241FBECFEFD8E022
S1130070DEBFCDBF11E0A0E0B1E0E2EFF2E102C0EB
S113008005900D92AE30B107D9F721E0AEE0B1E0B2
S113009001C01D92AA31B207E1F70E9422070C9415
S11300A077090C9400008FEF87B984B91AB88AB124
S11300B082708AB98BB18F618BB98DB383608DBB2C
S11300C0E9E6F0E080818A608083789408951F9245
S11300D00F920FB60F9211242F933F934F935F9378
S11300E06F937F938F939F93AF93BF93EF93FF93FC
S11300F020E030E040E85FE3609116017091170161
S113010080911801909119010E944F076093160184
S113011070931701809318019093190120E030E047
S113012040E85FE360911201709113018091140122
S1130130909115010E944F0760931201709313016F
S11301408093140190931501FF91EF91BF91AF91AA
S11301509F918F917F916F915F914F913F912F91DB
S11301600F900FBE0F901F9018951F920F920FB60D
S11301700F921124CF92DF92EF92FF922F933F932D
S11301804F935F936F937F938F939F93AF93BF939B
S1130190EF93FF93C0901601D0901701E0901801DF
S11301A0F090190120E030E0A901C701B6010E94D6
S11301B0DD08181684F420E030E040E85FE3C7016E
S11301C0B6010E944E076093160170931701809345
S11301D0180190931901FF91EF91BF91AF919F91F5
S11301E08F917F916F915F914F913F912F91FF90EC
S11301F0EF90DF90CF900F900FBE0F901F90189547
S11302002F923F924F925F926F927F928F929F9222
S1130210AF92BF92CF92DF92EF92FF920F931F9310
S1130220CF93DF9300D0CDB7DEB74B015C0100E084
S113023010E0552453940F2EF8EECF2EF3E0DF2E6A
S1130240F02D6894662463F80F2EF4E62F2E312CDB
S1130250F02D6894772474F86894442445F84C99F4
S113026009C01092120110921301109214011092FD
S1130270150127C0489912C0809110019091110175
S1130280892B39F481E090E090931101809310015F
S113029018C0109211011092100113C0499911C095
S11302A080910E0190910F01892B39F481E090E047
S11302B090930F0180930E0104C010920F011092CD
S11302C00E0120E030E040E251E4C501B4010E9497
S11302D0BB0788230CF067C020E030E04AE754E411
S11302E0C501B4010E94E2080E943208CB01B601A4
S11302F00E944F099C0155B8CB016AE070E00E944E
S11303004F09FC01EC5FFE4F808188B98FE39CE9C3
S11303100197F1F700C00000459A8FE19EE4019730
S1130320F1F700C0000045988FE19EE40197F1F7D2
S113033000C0000065B8C901B1010E944F09CB019A
S11303406AE070E00E944F09FC01EC5FFE4F80817F
S113035088B98FE493EC0197F1F700C0000075B8F9
S1130360C9016AE070E00E944F099C01CB016AE078
S113037070E00E944F09FC01EC5FFE4F808188B958
S11303808FE493EC0197F1F700C0000045B8F90140
S1130390EC5FFE4F808188B98FE493EC0197F1F70D
S11303A000C00000FFC020E030E048EC52E4C5018A
S11303B0B4010E94BB0788230CF081C020E030E028
S11303C048EC52E4C501B4010E94E2080E943208DC
S11303D07B01CB01B1010E944F099A83898320E0FC
S11303E030E040E252E46091120170911301809177
S11303F01401909115010E94DD0818164CF488B17F
S1130400872588B987EA91E60197F1F700C00000D3
S113041055B8C701B6010E944F09CB016AE070E0EC
S11304200E944F09FC01EC5FFE4F808188B98FE484
S113043093EC0197F1F700C0000065B8C701B10162
S11304400E944F09CB016AE070E00E944F09FC0151
S1130450EC5FFE4F808188B987EC9FEA0197F1F742
S113046000C00000459A8FE097E20197F1F700C0C1
S11304700000459875B889819A816AE070E00E940D
S11304804F099C01CB016AE070E00E944F09FC0116
S1130490EC5FFE4F808188B98FE493EC0197F1F70C
S11304A000C0000045B8F901EC5FFE4F808188B9B7
S11304B08FE493EC0197F1F700C0000073C020E0D3
S11304C030E04AE754E4C501B4010E94BB07882325
S11304D00CF068C020E030E040E251E4C501B40112
S11304E00E94E2080E9432089B0155B8CB01B60174
S11304F00E944F09CB016AE070E00E944F09FC01A1
S1130500EC5FFE4F808188B98FE493EC0197F1F79B
S113051000C0000065B8C901B1010E944F09CB01B8
S11305206AE070E00E944F09FC01EC5FFE4F80819D
S113053088B98FE493EC0197F1F700C0000075B817
S1130540C9016AE070E00E944F099C01CB016AE096
S113055070E00E944F09FC01EC5FFE4F808188B976
S11305608BE191E40197F1F70000459A8BE191E466
S11305700197F1F7000045988BE191E40197F1F7B9
S1130580000045B8C9016AE070E00E944F09FC010F
S1130590EC5FFE4F808188B98FE493EC0197F1F70B
S11305A000C000000F5F1F4F0431110509F057CE42
S11305B00F900F90DF91CF911F910F91FF90EF90CB
S11305C0DF90CF90BF90AF909F908F907F906F906F
S11305D05F904F903F902F9008952F923F924F92AB
S11305E05F926F927F928F929F92AF92BF92CF92BF
S11305F0DF92EF92FF920F931F93CF93DF9300D07C
S1130600CDB7DEB74B015C0100E010E02224239457
S1130610312C662463946894552453F80F2EF4E621
S1130620CF2ED12CF02D6894772474F86894442448
S113063045F84C9909C010921201109213011092BE
S113064014011092150123C0489910C08091100123
S113065090911101892B29F43092110120921001FB
S113066016C0109211011092100111C049990FC0C7
S113067080910E0190910F01892B29F430920F0182
S113068020920E0104C010920F0110920E0120E07E
S113069030E048EC52E4C501B4010E94BB07882352
S11306A00CF063C020E030E048EC52E4C501B40132
S11306B00E94E2080E9432089B01CB01B6010E940D
S11306C04F097B01FC0165B8C90168EE73E00E9423
S11306D04F09CB016AE070E00E944F09DC01AC5F76
S11306E0BE4F8C9188B98FE493EC0197F1F700C069
S11306F0000055B8C7016AE070E00E944F09DC01B0
S1130700AC5FBE4F8C9188B98FE39CE90197F1F7F8
S113071000C00000459A83E095E40197F1F70000DA
S1130720459875B8CF016AE070E00E944F099C01BA
S1130730CB016AE070E00E944F09FC01EC5FFE4FC0
S1130740808188B98FE493EC0197F1F700C0000031
S113075045B8F901EC5FFE4F808188B98FE493ECD2
S11307600197F1F700C0000094C020E030E04AE7B0
S113077054E4C501B4010E94BB0788230CF089C06E
S113078020E030E040E251E4C501B4010E94E208F7
S11307900E9432087B01CB016AE070E00E944F099D
S11307A09A83898320E030E040E252E460911201B0
S11307B07091130180911401909115010E94DD083C
S11307C018164CF488B1872588B987EA91E6019711
S11307D0F1F700C0000065B8C70168EE73E00E943D
S11307E04F09CB016AE070E00E944F09FC01EC5F05
S11307F0FE4F808188B98FE493EC0197F1F700C034
S1130800000055B8C701B6010E944F09CB016AE048
S113081070E00E944F09FC01EC5FFE4F808188B9B3
S11308208FE493EC0197F1F700C0000075B8C7019D
S11308306AE070E00E944F09CB016AE070E00E9418
S11308404F09FC01EC5FFE4F808188B98BE191E494
S11308500197F1F70000459A8BE191E40197F1F7D4
S1130860000045988BE191E40197F1F7000045B849
S113087089819A816AE070E00E944F09FC01EC5F73
S1130880FE4F808188B98FE493EC0197F1F700C0A3
S113089000000F5F1F4F0431110509F0CACE0F90FD
S11308A00F90DF91CF911F910F91FF90EF90DF9008
S11308B0CF90BF90AF909F908F907F906F905F90FC
S11308C04F903F902F900895CF92DF92EF92FF9236
S11308D0C0901601D0901701E0901801F090190112
S11308E020E030E040E151E4C701B6010E94E20893
S11308F020E030E040EA50E40E94C00720E030E00D
S113090040E052E40E944F0760930001709301019C
S11309108093020190930301C701B6010E94000174
S1130920489911C08091100190911101892B39F4DB
S113093081E090E0909311018093100104C0109223
S1130940110110921001499911C080910E019091EA
S11309500F01892B39F481E090E090930F0180938B
S11309600E0104C010920F0110920E01FF90EF903F
S1130970DF90CF90089520E030E040E151E46091B1
S113098016017091170180911801909119010E942C
S1130990E20820E030E040EA50E40E94C00720E092
S11309A030E040E052E40E944F07609300017093EE
S11309B0010180930201909303010E94ED02489982
S11309C011C08091100190911101892B39F481E0BB
S11309D090E0909311018093100104C010921101D2
S11309E010921001499911C080910E0190910F014C
S11309F0892B39F481E090E090930F0180930E01EC
S1130A00089510920F0110920E010895CF92DF9273
S1130A10EF92FF926B017C0184B5836A84BD85B536
S1130A20846085BD8AB180668AB920E030E040E701
S1130A3051E4C701B6010E94BB0718169CF020E0E0
S1130A4030E040E851E4C701B6010E94E2080E9488
S1130A50390867BD83EC99E00197F1F700C0000005
S1130A6017BC2BC020E030E048EC51E4C701B601CC
S1130A700E94BB071816ACF017BCC701B6010E9450
S1130A803208CB016FE070E00E944F098295807FAD
S1130A9088BD83EC99E00197F1F700C0000018BC11
S1130AA00CC020E030E048EC51E4C701B6010E94DC
S1130AB0DD08181614F418BC17BC4C9908C0109221
S1130AC01201109213011092140110921501FF905B
S1130AD0EF90DF90CF900895CF92DF92EF92FF9244
S1130AE06B017C01E0E8F0E0808183688083E1E8C9
S1130AF0F0E080818A60808384B1866084B98FEF5E
S1130B0093E0909387008093860020E030E048ECE7
S1130B1051E4C701B6010E94BB0788234CF410922C
S1130B2089001092880010928B0010928A003AC0BB
S1130B3020E030E048EC51E4C701B6010E94DD0832
S1130B40181684F520E030E04CE052E4C701B60109
S1130B500E94DD0818165CF4109289001092880037
S1130B6083EC99E00197F1F700C000001BC0C701B6
S1130B70B6010E943208CB0169E170E00E944F097E
S1130B8082959295907F9827807F9827E8E8F0E0F7
S1130B909183808383EC99E00197F1F700C0000012
S1130BA011821082489911C0809110019091110115
S1130BB0892B39F481E090E0909311018093100126
S1130BC004C01092110110921001499911C0809132
S1130BD00E0190910F01892B39F481E090E09093FC
S1130BE00F0180930E0104C010920F0110920E01A8
S1130BF04C9908C010921201109213011092140122
S1130C0010921501FF90EF90DF90CF900895CF924E
S1130C10DF92EF92FF926B017C01E0E8F0E08081CB
S1130C2082628083E1E8F0E080818A608083229A96
S1130C308FEF93E0909387008093860020E030E06C
S1130C404CE052E4C701B6010E94BB0718165CF0E1
S1130C5010928B0010928A0083EC99E00197F1F7CF
S1130C6000C000003AC020E030E04CE052E4C7018C
S1130C70B6010E94DD08181684F520E030E040E259
S1130C8052E4C701B6010E94DD0818165CF4109204
S1130C908B0010928A0083EC99E00197F1F700C071
S1130CA000001BC0C701B6010E943208CB0163E2F9
S1130CB070E00E944F0944E6489F9001499F300D1F
S1130CC01124EAE8F0E03183208383EC99E0019772
S1130CD0F1F700C0000011821082489911C0809180
S1130CE0100190911101892B39F481E090E09093E7
S1130CF011018093100104C010921101109210018F
S1130D00499911C080910E0190910F01892B39F4FA
S1130D1081E090E090930F0180930E0104C0109243
S1130D200F0110920E014C9908C0109212011092FA
S1130D3013011092140110921501FF90EF90DF90AF
S1130D40CF90089560911601709117018091180158
S1130D50909119010E940605609116017091170186
S1130D6080911801909119010E946C0560911601FF
S1130D707091170180911801909119010E94070642
S1130D802D98489911C08091100190911101892BDF
S1130D9039F481E090E0909311018093100104C034
S1130DA01092110110921001499911C080910E0105
S1130DB090910F01892B39F481E090E090930F0119
S1130DC080930E0104C010920F0110920E0120E0D6
S1130DD030E040E252E4609112017091130180917D
S1130DE01401909115010E94DD08181644F4449AE8
S1130DF083ED90E30197F1F700C000004498089553
S1130E0080910E0190910F01009761F4809110017F
S1130E1090911101892B19F40E94BB0408950E943A
S1130E2064040895019769F46091120170911301AB
S1130E3080911401909115010E943208CB010E9407
S1130E40A20608950E9453008BB183618BB9C1E05F
S1130E50D0E048990FC08091100190911101892B25
S1130E6029F4D0931101C093100104C01092110110
S1130E701092100149990FC080910E0190910F01B9
S1130E80892B29F4D0930F01C0930E0104C0109252
S1130E900F0110920E010E940007DBCF5058BB27B0
S1130EA0AA270E9466070C94A3080E94950838F0AC
S1130EB00E949C0820F039F49F3F19F426F40C9406
S1130EC092080EF4E095E7FB0C948C08E92F0E943D
S1130ED0B40858F3BA17620773078407950720F01C
S1130EE079F4A6F50C94D6080EF4E0950B2EBA2FDF
S1130EF0A02D0B01B90190010C01CA01A00111241C
S1130F00FF27591B99F0593F50F4503E68F11A16C7
S1130F10F040A22F232F342F4427585FF3CF469558
S1130F2037952795A795F0405395C9F77EF41F167A
S1130F30BA0B620B730B840BBAF09150A1F0FF0F44
S1130F40BB1F661F771F881FC2F70EC0BA0F621F30
S1130F50731F841F48F4879577956795B795F79520
S1130F609E3F08F0B0CF9395880F08F09927EE0FB5
S1130F709795879508950E94680808F481E008957C
S1130F800E94D4070C94A3080E949C0858F00E9465
S1130F90950840F029F45F3F29F00C948C08511116
S1130FA00C94D7080C9492080E94B40868F399230F
S1130FB0B1F3552391F3951B550BBB27AA27621751
S1130FC07307840738F09F5F5F4F220F331F441F5E
S1130FD0AA1FA9F335D00E2E3AF0E0E832D0915092
S1130FE05040E695001CCAF72BD0FE2F29D0660F7F
S1130FF0771F881FBB1F261737074807AB07B0E8C2
S113100009F0BB0B802DBF01FF2793585F4F3AF0C7
S11310109E3F510578F00C948C080C94D7085F3FE0
S1131020E4F3983ED4F3869577956795B795F7954D
S11310309F5FC9F7880F911D9695879597F9089535
S1131040E1E0660F771F881FBB1F621773078407D1
S1131050BA0720F0621B730B840BBA0BEE1F88F7E0
S1131060E09508950E9439086894B1110C94D7084A
S113107008950E94BC0888F09F5798F0B92F9927CB
S1131080B751B0F0E1F0660F771F881F991F1AF06F
S1131090BA95C9F714C0B13091F00E94D608B1E0F6
S11310A008950C94D608672F782F8827B85F39F0F5
S11310B0B93FCCF3869577956795B395D9F73EF408
S11310C090958095709561957F4F8F4F9F4F0895B0
S11310D0990F0008550FAA0BE0E8FEEF1616170645
S11310E0E807F907C0F012161306E407F50798F0AD
S11310F0621B730B840B950B39F40A2661F0232BC6
S1131100242B252B21F408950A2609F4A140A69541
S11311108FEF811D811D089597F99F6780E870E026
S113112060E008959FEF80EC089500240A94161659
S1131130170618060906089500240A9412161306C1
S1131140140605060895092E0394000C11F488234F
S113115052F0BB0F40F4BF2B11F460FF04C06F5F6B
S11311607F4F8F4F9F4F089557FD9058440F551F41
S113117059F05F3F71F04795880F97FB991F61F015
S11311809F3F79F087950895121613061406551F8C
S1131190F2CF4695F1DF08C0161617061806991FF8
S11311A0F1CF86957105610508940895E894BB27ED
S11311B066277727CB0197F908950E94680808F4F9
S11311C08FEF08950E94F5080C94A3080E949508D7
S11311D038F00E949C0820F0952311F00C948C08A0
S11311E00C94920811240C94D7080E94B40870F34C
S11311F0959FC1F3950F50E0551F629FF001729FB8
S1131200BB27F00DB11D639FAA27F00DB11DAA1FC6
S1131210649F6627B00DA11D661F829F2227B00D13
S1131220A11D621F739FB00DA11D621F839FA00D9E
S1131230611D221F749F3327A00D611D231F849FEE
S1131240600D211D822F762F6A2F11249F57504045
S11312509AF0F1F088234AF0EE0FFF1FBB1F661FC0
S1131260771F881F91505040A9F79E3F510580F089
S11312700C948C080C94D7085F3FE4F3983ED4F3A5
S1131280869577956795B795F795E7959F5FC1F72D
S1131290FE2B880F911D9695879597F9089597FBD6
S11312A0072E16F4009407D077FD09D00E94630935
S11312B007FC05D03EF4909581959F4F0895709555
S11312C061957F4F0895AA1BBB1B51E107C0AA1F5C
S11312D0BB1FA617B70710F0A61BB70B881F991FD3
S11312E05A95A9F780959095BC01CD010895F8947D
S10512F0FFCF2A
S11112F200000042000102030405060708097B
S9030000FC
