:100000000C9434000C9466000C94B4000C945100D1
:100010000C9451000C9451000C9451000C9451001C
:100020000C9451000C9451000C9451000C9451000C
:100030000C9451000C9451000C9451000C945100FC
:100040000C9451000C9451000C9451000C945100EC
:100050000C9451000C9451000C9451000C945100DC
:100060000C9451000C94510011241FBECFEFD8E026
:10007000DEBFCDBF11E0A0E0B1E0ECE9FFE002C0DF
:1000800005900D92AE30B107D9F721E0AEE0B1E0B6
:1000900001C01D92A631B207E1F70E949D050C94A4
:1000A000CC070C9400008FEF87B984B91AB88AB1D5
:1000B0001AB88BB18C618BB98DB383608DBBE9E6C7
:1000C000F0E080818A608083789408951F920F9277
:1000D0000FB60F9211242F933F934F935F936F931B
:1000E0007F938F939F93AF93BF93EF93FF9320E002
:1000F00030E040E85FE3609112017091130180915C
:100100001401909115010E94A4056093120170934F
:100110001301809314019093150120E030E040E832
:100120005FE360910E0170910F0180911001909139
:1001300011010E94A40560930E0170930F0180933A
:10014000100190931101FF91EF91BF91AF919F9199
:100150008F917F916F915F914F913F912F910F9070
:100160000FBE0F901F9018951F920F920FB60F920F
:100170001124CF92DF92EF92FF922F933F934F93F0
:100180005F936F937F938F939F93AF93BF93EF93FF
:10019000FF93C0901201D0901301E0901401F090F1
:1001A000150120E030E0A901C701B6010E94320725
:1001B000181684F420E030E040E85FE3C701B601A0
:1001C0000E94A305609312017093130180931401A0
:1001D00090931501FF91EF91BF91AF919F918F91F6
:1001E0007F916F915F914F913F912F91FF90EF9091
:1001F000DF90CF900F900FBE0F901F9018952F9209
:100200003F924F925F926F927F928F929F92AF92A6
:10021000BF92CF92DF92EF92FF920F931F93CF93F3
:10022000DF9300D0CDB7DEB74B015C0100E010E0FA
:10023000552453940F2EF8EECF2EF3E0DF2EF02D41
:100240006894662463F80F2EF4E62F2E312CF02DDF
:100250006894772474F86894442445F84C9908C04D
:1002600010920E0110920F011092100110921101C4
:1002700020E030E040E251E4C501B4010E941006E4
:1002800088230CF067C020E030E04AE754E4C50161
:10029000B4010E9437070E948706CB01B6010E9475
:1002A000A4079C0155B8CB016AE070E00E94A40746
:1002B000FC01EC5FFE4F808188B98FE39CE90197D8
:1002C000F1F700C00000459A8FE19EE40197F1F735
:1002D00000C0000045988FE19EE40197F1F700C04F
:1002E000000065B8C901B1010E94A407CB016AE012
:1002F00070E00E94A407FC01EC5FFE4F808188B98A
:100300008FE493EC0197F1F700C0000075B8C901C4
:100310006AE070E00E94A4079C01CB016AE070E0F3
:100320000E94A407FC01EC5FFE4F808188B98FE436
:1003300093EC0197F1F700C0000045B8F901EC5FBC
:10034000FE4F808188B98FE493EC0197F1F700C0EC
:100350000000FFC020E030E048EC52E4C501B401E9
:100360000E94100688230CF081C020E030E048ECA9
:1003700052E4C501B4010E9437070E9487067B0141
:10038000CB01B1010E94A4079A83898320E030E069
:1003900040E252E460910E0170910F0180911001D2
:1003A000909111010E94320718164CF488B18725EC
:1003B00088B987EA91E60197F1F700C0000055B8C7
:1003C000C701B6010E94A407CB016AE070E00E9459
:1003D000A407FC01EC5FFE4F808188B98FE493ECA9
:1003E0000197F1F700C0000065B8C701B1010E9494
:1003F000A407CB016AE070E00E94A407FC01EC5F57
:10040000FE4F808188B987EC9FEA0197F1F700C021
:100410000000459A8FE097E20197F1F700C00000D5
:10042000459875B889819A816AE070E00E94A407B6
:100430009C01CB016AE070E00E94A407FC01EC5F24
:10044000FE4F808188B98FE493EC0197F1F700C0EB
:10045000000045B8F901EC5FFE4F808188B98FE458
:1004600093EC0197F1F700C0000073C020E030E08A
:100470004AE754E4C501B4010E94100688230CF039
:1004800068C020E030E040E251E4C501B4010E94C0
:1004900037070E9487069B0155B8CB01B6010E9421
:1004A000A407CB016AE070E00E94A407FC01EC5FA6
:1004B000FE4F808188B98FE493EC0197F1F700C07B
:1004C000000065B8C901B1010E94A407CB016AE030
:1004D00070E00E94A407FC01EC5FFE4F808188B9A8
:1004E0008FE493EC0197F1F700C0000075B8C901E3
:1004F0006AE070E00E94A4079C01CB016AE070E012
:100500000E94A407FC01EC5FFE4F808188B98BE15B
:1005100091E40197F1F70000459A8BE191E401978E
:10052000F1F7000045988BE191E40197F1F70000A5
:1005300045B8C9016AE070E00E94A407FC01EC5FC5
:10054000FE4F808188B98FE493EC0197F1F700C0EA
:1005500000000F5F1F4F0431110509F07FCE0F908F
:100560000F90DF91CF911F910F91FF90EF90DF904F
:10057000CF90BF90AF909F908F907F906F905F9043
:100580004F903F902F9008952F923F924F925F92FD
:100590006F927F928F929F92AF92BF92CF92DF9293
:1005A000EF92FF920F931F93CF93DF9300D0CDB7BD
:1005B000DEB74B015C0100E010E0662463940F2E6F
:1005C000F8EE2F2EF3E03F2EF02D6894552453F8CB
:1005D0000F2EF4E6CF2ED12CF02D6894772474F8EA
:1005E0006894442445F84C9908C010920E0110926A
:1005F0000F01109210011092110120E030E048EC40
:1006000052E4C501B4010E94100688230CF062C0B8
:1006100020E030E048EC52E4C501B4010E94370705
:100620000E9487069B01CB01B6010E94A4077B01B3
:10063000FC0165B8C901B1010E94A407CB016AE0C1
:1006400070E00E94A407DC01AC5FBE4F8C9188B9BA
:100650008FE493EC0197F1F700C0000055B8C70193
:100660006AE070E00E94A407DC01AC5FBE4F8C9191
:1006700088B98FE39CE90197F1F700C00000459A23
:1006800083E095E40197F1F70000459875B8CF0134
:100690006AE070E00E94A4079C01CB016AE070E070
:1006A0000E94A407FC01EC5FFE4F808188B98FE4B3
:1006B00093EC0197F1F700C0000045B8F901EC5F39
:1006C000FE4F808188B98FE493EC0197F1F700C069
:1006D000000093C020E030E04AE754E4C501B401D3
:1006E0000E94100688230CF088C020E030E040E231
:1006F00051E4C501B4010E9437070E9487067B01BF
:10070000CB016AE070E00E94A4079A83898320E00D
:1007100030E040E252E460910E0170910F0180914F
:100720001001909111010E94320718164CF488B103
:10073000872588B987EA91E60197F1F700C00000A4
:1007400065B8C701B1010E94A407CB016AE070E05F
:100750000E94A407FC01EC5FFE4F808188B98FE402
:1007600093EC0197F1F700C0000055B8C701B6013E
:100770000E94A407CB016AE070E00E94A407FC017C
:10078000EC5FFE4F808188B98FE493EC0197F1F71D
:1007900000C0000075B8C7016AE070E00E94A407BD
:1007A000CB016AE070E00E94A407FC01EC5FFE4F01
:1007B000808188B98BE191E40197F1F70000459AB7
:1007C0008BE191E40197F1F7000045988BE191E40A
:1007D0000197F1F7000045B889819A816AE070E0DD
:1007E0000E94A407FC01EC5FFE4F808188B98FE472
:1007F00093EC0197F1F700C000000F5F1F4F043129
:10080000110509F0F0CE0F900F90DF91CF911F915D
:100810000F91FF90EF90DF90CF90BF90AF909F909F
:100820008F907F906F905F904F903F902F900895A2
:10083000CF92DF92EF92FF926B017C0184B5836AC5
:1008400084BD85B5846085BD8AB180668AB920E0A3
:1008500030E040E751E4C701B6010E9410061816C7
:1008600094F020E030E040E851E4C701B6010E9476
:1008700037070E948E0667BD83EC99E00197F1F778
:1008800000C000002AC020E030E048EC51E4C7017D
:10089000B6010E9410061816A4F017BCC701B601D5
:1008A0000E948706CB016FE070E00E94A40782954A
:1008B000807F88BD83EC99E00197F1F700C00000CC
:1008C0000CC020E030E048EC51E4C701B6010E94C2
:1008D0003207181614F418BC17BCFF90EF90DF9085
:1008E000CF900895CF92DF92EF92FF926B017C013F
:1008F000E0E8F0E0808183688083E1E8F0E08081D7
:100900008A60808384B1866084B98FEF93E090938E
:1009100087008093860020E030E048EC51E4C70176
:10092000B6010E94100688234CF4109289001092A0
:10093000880010928B0010928A0038C020E030E0CE
:1009400048EC51E4C701B6010E943207181674F54D
:1009500020E030E04CE052E4C701B6010E943207CB
:1009600018165CF4109289001092880083EC99E0CC
:100970000197F1F700C0000019C0C701B6010E943D
:100980008706CB0169E170E00E94A40782959295E9
:10099000907F9827807F9827909389008093880084
:1009A00083EC99E00197F1F700C00000FF90EF9011
:1009B000DF90CF900895CF92DF92EF92FF926B017C
:1009C0007C01E0E8F0E0808182628083E1E8F0E091
:1009D00080818A608083229A8FEF93E090938700D2
:1009E0008093860020E030E04CE052E4C701B6017D
:1009F0000E94100618165CF010928B0010928A006C
:100A000083EC99E00197F1F700C0000038C020E0C6
:100A100030E04CE052E4C701B6010E9432071816DC
:100A200074F520E030E040E252E4C701B6010E94D4
:100A3000320718165CF410928B0010928A0083EC37
:100A400099E00197F1F700C0000019C0C701B60195
:100A50000E948706CB0163E270E00E94A40744E68F
:100A6000489F9001499F300D112430938B002093B3
:100A70008A0083EC99E00197F1F700C00000FF9035
:100A8000EF90DF90CF900895CF92DF92EF92FF9298
:100A9000C0901201D0901301E0901401F090150164
:100AA00020E030E040E151E4C701B6010E94370781
:100AB00020E030E040EA50E40E94150620E030E0FB
:100AC00040E052E40E94A40560930001709301018C
:100AD0008093020190930301C701B6010E94FF00B9
:100AE0006091120170911301809114019091150190
:100AF0000E941804609112017091130180911401F9
:100B0000909115010E94720460911201709113017D
:100B100080911401909115010E94DB046091000105
:100B20007091010180910201909103010E94C40221
:100B3000FF90EF90DF90CF9008950E9453005C9A51
:100B40000E944405FDCF5058BB27AA270E94BB0531
:100B50000C94F8060E94EA0638F00E94F10620F094
:100B600039F49F3F19F426F40C94E7060EF4E0954F
:100B7000E7FB0C94E106E92F0E94090758F3BA1726
:100B8000620773078407950720F079F4A6F50C94A3
:100B90002B070EF4E0950B2EBA2FA02D0B01B901F7
:100BA00090010C01CA01A0011124FF27591B99F0E3
:100BB000593F50F4503E68F11A16F040A22F232FEF
:100BC000342F4427585FF3CF469537952795A7953F
:100BD000F0405395C9F77EF41F16BA0B620B730BE6
:100BE000840BBAF09150A1F0FF0FBB1F661F771F57
:100BF000881FC2F70EC0BA0F621F731F841F48F40C
:100C0000879577956795B795F7959E3F08F0B0CF94
:100C10009395880F08F09927EE0F9795879508957B
:100C20000E94BD0608F481E008950E9429060C94F4
:100C3000F8060E94F10658F00E94EA0640F029F4F6
:100C40005F3F29F00C94E10651110C942C070C9491
:100C5000E7060E94090768F39923B1F3552391F33E
:100C6000951B550BBB27AA2762177307840738F01B
:100C70009F5F5F4F220F331F441FAA1FA9F335D078
:100C80000E2E3AF0E0E832D091505040E695001C2C
:100C9000CAF72BD0FE2F29D0660F771F881FBB1FE6
:100CA000261737074807AB07B0E809F0BB0B802DC4
:100CB000BF01FF2793585F4F3AF09E3F510578F0F0
:100CC0000C94E1060C942C075F3FE4F3983ED4F3B8
:100CD000869577956795B795F7959F5FC9F7880FC4
:100CE000911D9695879597F90895E1E0660F771F16
:100CF000881FBB1F621773078407BA0720F0621BA7
:100D0000730B840BBA0BEE1F88F7E09508950E94D1
:100D10008E066894B1110C942C0708950E94110757
:100D200088F09F5798F0B92F9927B751B0F0E1F0AC
:100D3000660F771F881F991F1AF0BA95C9F714C05C
:100D4000B13091F00E942B07B1E008950C942B076D
:100D5000672F782F8827B85F39F0B93FCCF3869595
:100D600077956795B395D9F73EF4909580957095F2
:100D700061957F4F8F4F9F4F0895990F0008550F32
:100D8000AA0BE0E8FEEF16161706E807F907C0F011
:100D900012161306E407F50798F0621B730B840B19
:100DA000950B39F40A2661F0232B242B252B21F4F3
:100DB00008950A2609F4A140A6958FEF811D811D93
:100DC000089597F99F6780E870E060E008959FEFCD
:100DD00080EC089500240A941616170618060906D2
:100DE000089500240A9412161306140605060895A1
:100DF000092E0394000C11F4882352F0BB0F40F429
:100E0000BF2B11F460FF04C06F5F7F4F8F4F9F4F68
:100E1000089557FD9058440F551F59F05F3F71F0EA
:100E20004795880F97FB991F61F09F3F79F0879551
:100E30000895121613061406551FF2CF4695F1DFDA
:100E400008C0161617061806991FF1CF869571056A
:100E5000610508940895E894BB2766277727CB019E
:100E600097F908950E94BD0608F48FEF08950E9437
:100E70004A070C94F8060E94EA0638F00E94F10630
:100E800020F0952311F00C94E1060C94E706112450
:100E90000C942C070E94090770F3959FC1F3950FDE
:100EA00050E0551F629FF001729FBB27F00DB11DEE
:100EB000639FAA27F00DB11DAA1F649F6627B00D7E
:100EC000A11D661F829F2227B00DA11D621F739F67
:100ED000B00DA11D621F839FA00D611D221F749F75
:100EE0003327A00D611D231F849F600D211D822FBC
:100EF000762F6A2F11249F5750409AF0F1F08823E3
:100F00004AF0EE0FFF1FBB1F661F771F881F91500F
:100F10005040A9F79E3F510580F00C94E1060C94D7
:100F20002C075F3FE4F3983ED4F386957795679559
:100F3000B795F795E7959F5FC1F7FE2B880F911D39
:100F40009695879597F9089597FB072E16F40094C8
:100F500007D077FD09D00E94B80707FC05D03EF402
:100F6000909581959F4F0895709561957F4F089555
:100F7000AA1BBB1B51E107C0AA1FBB1FA617B707BF
:100F800010F0A61BB70B881F991F5A95A9F78095DB
:0C0F90009095BC01CD010895F894FFCFAE
:0E0F9C000000004200010203040506070809D8
:00000001FF
